:100000001AC03EC03DC03CC03BC03AC039C038C039
:1000100037C036C035C034C033C032C068C230C00B
:100020002FC02EC02DC02CC02BC02AC0E0C2BAC227
:1000300027C026C0250311241FBECFEFCDBFDFE3AD
:10004000DEBF1FE3A0E0BFE3EFE0FEE002C00590EB
:100050000D92A830B107D9F72FE3A8E0BFE301C0A4
:100060001D92AE36B207E1F710E0CBE1D0E003C05D
:100070002197FE01F2D4CA31D107D1F721D39BC613
:10008000BFCFAF92BF92CF92DF92EF92FF920F93CA
:100090001F93CF93DF936C017B018B01040F151F1E
:1000A000EB015E01AE18BF08C017D10759F0699186
:1000B000D601ED91FC910190F081E02DC6010995EA
:1000C000892B79F7C501DF91CF911F910F91FF9097
:1000D000EF90DF90CF90BF90AF900895FC01508DCE
:1000E000418D252F30E0842F90E0821B930B541715
:1000F00010F00F96089501970895FC01968987895D
:10010000981761F0A789AE0FBF2FB11D5B968C9138
:1001100097899F5F9F70978B90E008958FEF9FEF77
:100120000895FC0196898789981731F08789E80F2F
:10013000F11D838D90E008958FEF9FEF0895FC01EE
:1001400096892789892F90E04096821B91098F70AC
:1001500099270895CF93DF93EC01E881F981068018
:10016000F781E02D0995EC85FD8586818F73868367
:10017000EC85FD8585818F7585838F898E8B1D8AA2
:10018000DF91CF910895CF93DF93FC01908D818D06
:10019000A485B585981309C015968C9115978F7D08
:1001A00015968C93DF91CF910895C18DCE0FDF2FDF
:1001B000D11D9BA5818D8F5F8F70818F80E41496F8
:1001C0008C93A485B58512969C93908D818D981300
:1001D000E9CF0484F585E02D85818F7D8583E2CF8D
:1001E000DC011C96ED91FC910FB607FE07C025813E
:1001F00025FF04C020911101222319F0248125FD3F
:10020000C2CF08950F931F93CF93DF93EC0181E04A
:100210008D8B988D898D981311C0EC85FD85848117
:1002200085FF0CC080E48483EC85FD85628381E0DA
:1002300090E0DF91CF911F910F910895062F188DB7
:100240001F5F1F70898D811303C0CE01C9DFFACFF4
:10025000E88DEC0FFD2FF11D03A7188FEC85FD85B0
:10026000858180628583E3CFCF93DF93EC018D8915
:10027000882359F0EC85FD85858185FD03C0848147
:1002800086FD03C0CE01ACDFF5CFDF91CF9108959D
:1002900081E008956091053F7091063F90E080E015
:1002A0008FD42091003F3091013F4091023F509107
:1002B000033F14D59B01AC0160E074E284E799E44C
:1002C000DED34FD460936A3F70936B3F80936C3F53
:1002D00090936D3F0895DC01ED91FC910088F189C8
:1002E000E02D23E030E00994FC0101900020E9F7C3
:1002F0003197AF01481B590BBC018FE29FE3C1CE80
:100300008F929F92AF92BF920F931F93CF93DF93E1
:10031000CDB7DEB7A197CDBFDEBF19A2423008F43A
:100320004AE08E010F5D1F4F842E912CB12CA12C21
:10033000A501940160D3E62FB901CA01EA30D4F4D3
:10034000E05DD801EE938D01232B242B252B81F723
:1003500090E080E0109711F0CD01C6DFA196CDBFEF
:10036000DEBFDF91CF911F910F91BF90AF909F9013
:100370008F900895E95CE5CFCF93DF938C3098F4AC
:1003800090E0FC01EE52F24720812F3F61F0FC012A
:10039000EA53F247E08130E2E39FF0011124FC5F71
:1003A000613021F42183DF91CF91089586549247E3
:1003B000EC01A881309791F0AF3F81F0CF014096DA
:1003C000A80FB92FB11D9FB7F89422838C9162308A
:1003D00041F488608C9325839FBFE5CFB0E0A0E017
:1003E000F2CF877F8C932683F7CF8F929F92AF9225
:1003F000BF92DF92EF92FF920F931F93CF93DF9301
:10040000EC014A015B01D22E8D89882339F0E88105
:10041000F9810288F389E02DCE0109950C8910E05D
:10042000E12C811420E6920629E0A206B10430F006
:10043000B694A7949794879442E0E42E1D8AF09096
:10044000231160E070E281EA97E0A5019401D3D224
:10045000AF2DFF0CBB0BBC5FFAD2DC01CB012BE054
:10046000B595A795979587952A95D1F7FFB6F894F6
:10047000EC85FD85009721E0A207B10524F08FEF00
:100480009FEFA0E0B0E080879187EC85FD85D78263
:10049000EC85FD858681897F806C8E298683EC853D
:1004A000FD85858180688583909101028B89809587
:1004B00089239801220F331F020F131FC00FD11F72
:1004C0009889892B8093010262E08E8555DF61E077
:1004D0008F8552DFFFBEDF91CF911F910F91FF906B
:1004E000EF90DF90BF90AF909F908F9008951F92F4
:1004F0000F920FB60F9211242F933F934F935F9358
:100500006F938F939F93AF93BF9380912B3F909165
:100510002C3FA0912D3FB0912E3F4091293F50910B
:100520002A3F9A012C5E3F4F283E63E0360798F53C
:100530000196A11DB11D2093293F30932A3F80933E
:100540002B3F90932C3FA0932D3FB0932E3F809153
:10055000253F9091263FA091273FB091283F0196DB
:10056000A11DB11D8093253F9093263FA093273F67
:10057000B093283F81E080938D0ABF91AF919F9106
:100580008F916F915F914F913F912F910F900FBE7F
:100590000F901F9018959A01245D33400296A11D7B
:1005A000B11DC9CF1F920F920FB60F9211242F9336
:1005B0003F934F935F936F937F938F939F93AF93EB
:1005C000BF93EF93FF938FE29FE3DDDDFF91EF9108
:1005D000BF91AF919F918F917F916F915F914F915B
:1005E0003F912F910F900FBE0F901F9018951F9263
:1005F0000F920FB60F9211242F938F939F93EF9327
:10060000FF93E0913B3FF0913C3F818181FD1BC016
:1006100090818091453F8F5F8F702091463F821778
:1006200041F0E091453FF0E0E15DF04C938F809325
:10063000453FFF91EF919F918F912F910F900FBEAA
:100640000F901F9018958081F4CFEFE2FFE31282A4
:10065000138288EE93E0A0E0B0E084839583A683C4
:10066000B78382EE9DE88083918380E098E0848761
:10067000958784E0868785E08787108A89E0818B6B
:1006800088E0828B81E0838B148A158A168A178A08
:10069000108E118E87E1828F2091053F3091063FA9
:1006A00050E040E060E472E48FE090E0A4D1209359
:1006B0006A3F30936B3F40936C3F50936D3F08957A
:1006C00088ED90E084BF9093610083E580930206FB
:1006D0008AE08093050680E28093030681E08093A0
:1006E00000068093030A9EEF9093260A9093270AB0
:1006F0009BE09093000A2DEF31E02093AE0A3093F7
:10070000AF0A1092810A90E89093820A80938C0A33
:1007100081E18093800A789460E080E02DDE40E003
:1007200052EC61E070E08FE29FE3D5DD87E08093DB
:10073000043F80E890E08093053F9093063FAADD58
:1007400080E090E0A0E8BFE38093003F9093013FFA
:10075000A093023FB093033F9DDDC1E0D0E018E0DD
:1007600004E0FF24F3948FE29FE3E9DC892B09F492
:100770009FC08FE29FE3E3DC892BA9F38FE29FE325
:10078000BCDCE0911A3FE03130F49091193F923097
:10079000A8F09230B1F18A3061F78091083F823041
:1007A00009F46EC008F041C0813009F45FC01092B6
:1007B0001A3F1092193F1092183FDBCF30ED380FDF
:1007C0009F5F2091183F2295207F3A3050F02FEB09
:1007D000280F263060F42091183F2295207F39ECB5
:1007E000380F232B2093183F9093193FD4CF2FE934
:1007F000280F2630C8F72091183F2295207F39EA2C
:10080000EFCF91E09E0F90931A3FF0E0E85FF04C3D
:100810009091183F9083803219F08C3209F0BBCF51
:100820001092193F1092183FB6CF833089F184306F
:1008300009F0BDCF6091093F70910A3F7627672785
:1008400076276115710509F4B2CF90E080E0B8D148
:1008500020E030E040E85BE341D26093003F7093DA
:10086000013F8093023F9093033F20C088EF9DE8B3
:100870003BDD8DEF9DE838DD83E09EE835DD97CFE9
:100880006091043F70E090E080E04AE039DDF4CF11
:100890008091093F8093043F9E0102C0220F331FC5
:1008A0008A95E2F72093053F3093063FF3DC7FCF34
:1008B0009FB7F8941093840A80918E0A81FFFCCF31
:1008C00080918D0AE091A20AF091A30A2091253F20
:1008D0003091263F4091273F5091283F9FBF80FF96
:1008E00007C0E730F10520F42F5F3F4F4F4F5F4FB8
:1008F000ACEFB3E0A2D0EE0FFF1FDC01CB018E0FF7
:100900009F1FA11DB11D8090213F9090223FA0907C
:10091000233FB090243F2C013D01481859086A0834
:100920007B0880906A3F90906B3FA0906C3FB090A6
:100930006D3F481459046A047B0408F414CF809373
:10094000213F9093223FA093233FB093243F809177
:10095000000621E030E8882361F000930606F0925B
:10096000080680910B0680FFFCCF20911006309185
:10097000110680911D3F90911E3FA0911F3FB091A5
:10098000203F820F931FA11DB11D80931D3F9093A7
:100990001E3FA0931F3FB093203F80911B3F90913B
:1009A0001C3F019680931B3F90931C3F2091053F75
:1009B0003091063F8217930708F4D5CE86E09EE873
:1009C00093DC60911D3F70911E3F80911F3F90917D
:1009D000203F4AE095DC83E09EE886DC10921D3FD4
:1009E00010921E3F10921F3F1092203F10921B3F0B
:1009F00010921C3FB8CEA1E21A2EAA1BBB1BFD0110
:100A00000DC0AA1FBB1FEE1FFF1FA217B307E407ED
:100A1000F50720F0A21BB30BE40BF50B661F771F45
:100A2000881F991F1A9469F7609570958095909525
:100A30009B01AC01BD01CF01089515D0A59F900D7C
:100A4000B49F900DA49F800D911D11240895B7FFB0
:100A5000F4CFF3DF821B930B0895EE0FFF1F059079
:100A6000F491E02D0994A29FB001B39FC001A39F10
:100A700001D0B29F700D811D1124911D08950E9417
:100A800053050C9434060E942D0658F00E94260649
:100A900040F029F45F3F29F00C941D0651110C948D
:100AA00068060C9423060E94450668F39923B1F367
:100AB000552391F3951B550BBB27AA276217730784
:100AC000840738F09F5F5F4F220F331F441FAA1F18
:100AD000A9F335D00E2E3AF0E0E832D091505040D4
:100AE000E695001CCAF72BD0FE2F29D0660F771F82
:100AF000881FBB1F261737074807AB07B0E809F068
:100B0000BB0B802DBF01FF2793585F4F3AF09E3FEC
:100B1000510578F00C941D060C9468065F3FE4F3D1
:100B2000983ED4F3869577956795B795F7959F5F2F
:100B3000C9F7880F911D9695879597F90895E1E07B
:100B4000660F771F881FBB1F621773078407BA07DA
:100B500020F0621B730B840BBA0BEE1F88F7E09535
:100B600008950E944D0688F09F5798F0B92F992755
:100B7000B751B0F0E1F0660F771F881F991F1AF088
:100B8000BA95C9F714C0B13091F00E946706B1E080
:100B900008950C946706672F782F8827B85F39F07F
:100BA000B93FCCF3869577956795B395D9F73EF421
:100BB00090958095709561957F4F8F4F9F4F0895C9
:100BC000E89409C097FB3EF49095809570956195E7
:100BD0007F4F8F4F9F4F9923A9F0F92F96E9BB279D
:100BE0009395F695879577956795B795F111F8CF19
:100BF000FAF4BB0F11F460FF1BC06F5F7F4F8F4F84
:100C00009F4F16C0882311F096E911C0772321F079
:100C10009EE8872F762F05C0662371F096E8862F11
:100C200070E060E02AF09A95660F771F881FDAF768
:100C3000880F9695879597F9089597F99F6780E8AB
:100C400070E060E008959FEF80EC089500240A941E
:100C50001616170618060906089500240A94121697
:100C60001306140605060895092E0394000C11F4CA
:100C7000882352F0BB0F40F4BF2B11F460FF04C077
:100C80006F5F7F4F8F4F9F4F089557FD9058440FD0
:100C9000551F59F05F3F71F04795880F97FB991FDB
:100CA00061F09F3F79F08795089512161306140698
:100CB000551FF2CF4695F1DF08C016161706180625
:100CC000991FF1CF86957105610508940895E89400
:100CD000BB2766277727CB0197F908950E948106E5
:100CE0000C9434060E94260638F00E942D0620F04F
:100CF000952311F00C941D060C94230611240C94DA
:100D000068060E94450670F3959FC1F3950F50E069
:100D1000551F629FF001729FBB27F00DB11D639FAD
:100D2000AA27F00DB11DAA1F649F6627B00DA11D53
:100D3000661F829F2227B00DA11D621F739FB00DF9
:100D4000A11D621F839FA00D611D221F749F332769
:100D5000A00D611D231F849F600D211D822F762F02
:100D60006A2F11249F5750409AF0F1F088234AF0DF
:100D7000EE0FFF1FBB1F661F771F881F915050404B
:100D8000A9F79E3F510580F00C941D060C9468064F
:100D90005F3FE4F3983ED4F3869577956795B795D2
:100DA000F795E7959F5FC1F7FE2B880F911D9695EC
:0A0DB000879597F90895F894FFCF96
:100DBA000405060703020100010203000000000007
:100DCA000101010100000000102040800804020116
:100DDA000204080100000000020141006E00340113
:100DEA009F007D0091006B01F501AA00480156653C
:100DFA00722000302E312E30000D0A0053616D70C2
:050E0A006C653A2000B8
:080E0F000000803F0780000095
:00000001FF
